{
  "contractName": "DegreeVerification",
  "abi": [
    {
      "inputs": [
        {
          "internalType": "address",
          "name": "",
          "type": "address"
        }
      ],
      "name": "degrees",
      "outputs": [
        {
          "internalType": "string",
          "name": "studentName",
          "type": "string"
        },
        {
          "internalType": "string",
          "name": "degreeName",
          "type": "string"
        },
        {
          "internalType": "string",
          "name": "university",
          "type": "string"
        },
        {
          "internalType": "uint256",
          "name": "graduationYear",
          "type": "uint256"
        }
      ],
      "stateMutability": "view",
      "type": "function"
    },
    {
      "inputs": [
        {
          "internalType": "address",
          "name": "student",
          "type": "address"
        },
        {
          "internalType": "string",
          "name": "studentName",
          "type": "string"
        },
        {
          "internalType": "string",
          "name": "degreeName",
          "type": "string"
        },
        {
          "internalType": "string",
          "name": "university",
          "type": "string"
        },
        {
          "internalType": "uint256",
          "name": "graduationYear",
          "type": "uint256"
        }
      ],
      "name": "addDegree",
      "outputs": [],
      "stateMutability": "nonpayable",
      "type": "function"
    },
    {
      "inputs": [
        {
          "internalType": "address",
          "name": "student",
          "type": "address"
        }
      ],
      "name": "getDegree",
      "outputs": [
        {
          "components": [
            {
              "internalType": "string",
              "name": "studentName",
              "type": "string"
            },
            {
              "internalType": "string",
              "name": "degreeName",
              "type": "string"
            },
            {
              "internalType": "string",
              "name": "university",
              "type": "string"
            },
            {
              "internalType": "uint256",
              "name": "graduationYear",
              "type": "uint256"
            }
          ],
          "internalType": "struct DegreeVerification.Degree",
          "name": "",
          "type": "tuple"
        }
      ],
      "stateMutability": "view",
      "type": "function"
    }
  ],
  "bytecode": "0x608060405234801561000f575f80fd5b50610fa68061001d5f395ff3fe608060405234801561000f575f80fd5b506004361061003f575f3560e01c8063270d66b814610043578063afff66ac14610076578063d6d08dca14610092575b5f80fd5b61005d600480360381019061005891906106dc565b6100c2565b60405161006d94939291906107a9565b60405180910390f35b610090600480360381019061008b9190610957565b61027f565b005b6100ac60048036038101906100a791906106dc565b61043b565b6040516100b99190610ae7565b60405180910390f35b5f602052805f5260405f205f91509050805f0180546100e090610b34565b80601f016020809104026020016040519081016040528092919081815260200182805461010c90610b34565b80156101575780601f1061012e57610100808354040283529160200191610157565b820191905f5260205f20905b81548152906001019060200180831161013a57829003601f168201915b50505050509080600101805461016c90610b34565b80601f016020809104026020016040519081016040528092919081815260200182805461019890610b34565b80156101e35780601f106101ba576101008083540402835291602001916101e3565b820191905f5260205f20905b8154815290600101906020018083116101c657829003601f168201915b5050505050908060020180546101f890610b34565b80601f016020809104026020016040519081016040528092919081815260200182805461022490610b34565b801561026f5780601f106102465761010080835404028352916020019161026f565b820191905f5260205f20905b81548152906001019060200180831161025257829003601f168201915b5050505050908060030154905084565b5f8451116102c2576040517f08c379a00000000000000000000000000000000000000000000000000000000081526004016102b990610bae565b60405180910390fd5b5f835111610305576040517f08c379a00000000000000000000000000000000000000000000000000000000081526004016102fc90610c16565b60405180910390fd5b5f825111610348576040517f08c379a000000000000000000000000000000000000000000000000000000000815260040161033f90610c7e565b60405180910390fd5b5f811161038a576040517f08c379a000000000000000000000000000000000000000000000000000000000815260040161038190610ce6565b60405180910390fd5b6040518060800160405280858152602001848152602001838152602001828152505f808773ffffffffffffffffffffffffffffffffffffffff1673ffffffffffffffffffffffffffffffffffffffff1681526020019081526020015f205f820151815f0190816103fa9190610ea1565b5060208201518160010190816104109190610ea1565b5060408201518160020190816104269190610ea1565b50606082015181600301559050505050505050565b61044361064a565b5f808373ffffffffffffffffffffffffffffffffffffffff1673ffffffffffffffffffffffffffffffffffffffff1681526020019081526020015f206040518060800160405290815f8201805461049990610b34565b80601f01602080910402602001604051908101604052809291908181526020018280546104c590610b34565b80156105105780601f106104e757610100808354040283529160200191610510565b820191905f5260205f20905b8154815290600101906020018083116104f357829003601f168201915b5050505050815260200160018201805461052990610b34565b80601f016020809104026020016040519081016040528092919081815260200182805461055590610b34565b80156105a05780601f10610577576101008083540402835291602001916105a0565b820191905f5260205f20905b81548152906001019060200180831161058357829003601f168201915b505050505081526020016002820180546105b990610b34565b80601f01602080910402602001604051908101604052809291908181526020018280546105e590610b34565b80156106305780601f1061060757610100808354040283529160200191610630565b820191905f5260205f20905b81548152906001019060200180831161061357829003601f168201915b505050505081526020016003820154815250509050919050565b60405180608001604052806060815260200160608152602001606081526020015f81525090565b5f604051905090565b5f80fd5b5f80fd5b5f73ffffffffffffffffffffffffffffffffffffffff82169050919050565b5f6106ab82610682565b9050919050565b6106bb816106a1565b81146106c5575f80fd5b50565b5f813590506106d6816106b2565b92915050565b5f602082840312156106f1576106f061067a565b5b5f6106fe848285016106c8565b91505092915050565b5f81519050919050565b5f82825260208201905092915050565b5f5b8381101561073e578082015181840152602081019050610723565b5f8484015250505050565b5f601f19601f8301169050919050565b5f61076382610707565b61076d8185610711565b935061077d818560208601610721565b61078681610749565b840191505092915050565b5f819050919050565b6107a381610791565b82525050565b5f6080820190508181035f8301526107c18187610759565b905081810360208301526107d58186610759565b905081810360408301526107e98185610759565b90506107f8606083018461079a565b95945050505050565b5f80fd5b5f80fd5b7f4e487b71000000000000000000000000000000000000000000000000000000005f52604160045260245ffd5b61083f82610749565b810181811067ffffffffffffffff8211171561085e5761085d610809565b5b80604052505050565b5f610870610671565b905061087c8282610836565b919050565b5f67ffffffffffffffff82111561089b5761089a610809565b5b6108a482610749565b9050602081019050919050565b828183375f83830152505050565b5f6108d16108cc84610881565b610867565b9050828152602081018484840111156108ed576108ec610805565b5b6108f88482856108b1565b509392505050565b5f82601f83011261091457610913610801565b5b81356109248482602086016108bf565b91505092915050565b61093681610791565b8114610940575f80fd5b50565b5f813590506109518161092d565b92915050565b5f805f805f60a086880312156109705761096f61067a565b5b5f61097d888289016106c8565b955050602086013567ffffffffffffffff81111561099e5761099d61067e565b5b6109aa88828901610900565b945050604086013567ffffffffffffffff8111156109cb576109ca61067e565b5b6109d788828901610900565b935050606086013567ffffffffffffffff8111156109f8576109f761067e565b5b610a0488828901610900565b9250506080610a1588828901610943565b9150509295509295909350565b5f82825260208201905092915050565b5f610a3c82610707565b610a468185610a22565b9350610a56818560208601610721565b610a5f81610749565b840191505092915050565b610a7381610791565b82525050565b5f608083015f8301518482035f860152610a938282610a32565b91505060208301518482036020860152610aad8282610a32565b91505060408301518482036040860152610ac78282610a32565b9150506060830151610adc6060860182610a6a565b508091505092915050565b5f6020820190508181035f830152610aff8184610a79565b905092915050565b7f4e487b71000000000000000000000000000000000000000000000000000000005f52602260045260245ffd5b5f6002820490506001821680610b4b57607f821691505b602082108103610b5e57610b5d610b07565b5b50919050565b7f53747564656e74206e616d6520697320726571756972656400000000000000005f82015250565b5f610b98601883610711565b9150610ba382610b64565b602082019050919050565b5f6020820190508181035f830152610bc581610b8c565b9050919050565b7f446567726565206e616d652069732072657175697265640000000000000000005f82015250565b5f610c00601783610711565b9150610c0b82610bcc565b602082019050919050565b5f6020820190508181035f830152610c2d81610bf4565b9050919050565b7f556e6976657273697479206e616d6520697320726571756972656400000000005f82015250565b5f610c68601b83610711565b9150610c7382610c34565b602082019050919050565b5f6020820190508181035f830152610c9581610c5c565b9050919050565b7f47726164756174696f6e207965617220697320726571756972656400000000005f82015250565b5f610cd0601b83610711565b9150610cdb82610c9c565b602082019050919050565b5f6020820190508181035f830152610cfd81610cc4565b9050919050565b5f819050815f5260205f209050919050565b5f6020601f8301049050919050565b5f82821b905092915050565b5f60088302610d607fffffffffffffffffffffffffffffffffffffffffffffffffffffffffffffffff82610d25565b610d6a8683610d25565b95508019841693508086168417925050509392505050565b5f819050919050565b5f610da5610da0610d9b84610791565b610d82565b610791565b9050919050565b5f819050919050565b610dbe83610d8b565b610dd2610dca82610dac565b848454610d31565b825550505050565b5f90565b610de6610dda565b610df1818484610db5565b505050565b5b81811015610e1457610e095f82610dde565b600181019050610df7565b5050565b601f821115610e5957610e2a81610d04565b610e3384610d16565b81016020851015610e42578190505b610e56610e4e85610d16565b830182610df6565b50505b505050565b5f82821c905092915050565b5f610e795f1984600802610e5e565b1980831691505092915050565b5f610e918383610e6a565b9150826002028217905092915050565b610eaa82610707565b67ffffffffffffffff811115610ec357610ec2610809565b5b610ecd8254610b34565b610ed8828285610e18565b5f60209050601f831160018114610f09575f8415610ef7578287015190505b610f018582610e86565b865550610f68565b601f198416610f1786610d04565b5f5b82811015610f3e57848901518255600182019150602085019450602081019050610f19565b86831015610f5b5784890151610f57601f891682610e6a565b8355505b6001600288020188555050505b50505050505056fea2646970667358221220faea579a1c28ae7b8512e4f23b570321894cad7abb0d376b2d1c951896e0914f64736f6c63430008150033",
  "immutableReferences": {},
  "source": "pragma solidity ^0.8.0;\n\ncontract DegreeVerification {\n    struct Degree {\n        string studentName;\n        string degreeName;\n        string university;\n        uint256 graduationYear;\n    }\n\n    mapping(address => Degree) public degrees;\n\n    function addDegree(\n        address student,\n        string memory studentName,\n        string memory degreeName,\n        string memory university,\n        uint256 graduationYear\n    ) public {\n        require(bytes(studentName).length > 0, \"Student name is required\");\n        require(bytes(degreeName).length > 0, \"Degree name is required\");\n        require(bytes(university).length > 0, \"University name is required\");\n        require(graduationYear > 0, \"Graduation year is required\");\n\n        degrees[student] = Degree(studentName, degreeName, university, graduationYear);\n    }\n\n    function getDegree(address student) public view returns (Degree memory) {\n        return degrees[student];\n    }\n}",
  "sourcePath": "/Users/pravingotmare/Desktop/project/contracts/Degree.sol",
  "compiler": {
    "name": "solc",
    "version": "0.8.21+commit.d9974bed.Emscripten.clang"
  },
  "schemaVersion": "3.4.16",
  "updatedAt": "2025-02-14T18:27:09.682Z",
  "devdoc": {
    "kind": "dev",
    "methods": {},
    "version": 1
  },
  "userdoc": {
    "kind": "user",
    "methods": {},
    "version": 1
  }
}